{
  "_format": "hh-sol-artifact-1",
  "contractName": "PredictionMarket",
  "sourceName": "contracts/PredictionMarket.sol",
  "abi": [
    {
      "anonymous": false,
      "inputs": [
        {
          "indexed": true,
          "internalType": "uint256",
          "name": "marketId",
          "type": "uint256"
        },
        {
          "indexed": true,
          "internalType": "address",
          "name": "bettor",
          "type": "address"
        },
        {
          "indexed": false,
          "internalType": "uint256",
          "name": "amount",
          "type": "uint256"
        }
      ],
      "name": "BetPlaced",
      "type": "event"
    },
    {
      "anonymous": false,
      "inputs": [
        {
          "indexed": true,
          "internalType": "uint256",
          "name": "marketId",
          "type": "uint256"
        },
        {
          "indexed": false,
          "internalType": "string",
          "name": "question",
          "type": "string"
        },
        {
          "indexed": false,
          "internalType": "uint256",
          "name": "endTime",
          "type": "uint256"
        },
        {
          "indexed": false,
          "internalType": "address",
          "name": "creator",
          "type": "address"
        }
      ],
      "name": "MarketCreated",
      "type": "event"
    },
    {
      "anonymous": false,
      "inputs": [
        {
          "indexed": true,
          "internalType": "uint256",
          "name": "marketId",
          "type": "uint256"
        },
        {
          "indexed": false,
          "internalType": "bool",
          "name": "outcome",
          "type": "bool"
        }
      ],
      "name": "MarketResolved",
      "type": "event"
    },
    {
      "anonymous": false,
      "inputs": [
        {
          "indexed": true,
          "internalType": "uint256",
          "name": "marketId",
          "type": "uint256"
        },
        {
          "indexed": true,
          "internalType": "address",
          "name": "winner",
          "type": "address"
        },
        {
          "indexed": false,
          "internalType": "uint256",
          "name": "amount",
          "type": "uint256"
        }
      ],
      "name": "WinningsClaimed",
      "type": "event"
    },
    {
      "inputs": [],
      "name": "MAX_BET",
      "outputs": [
        {
          "internalType": "uint256",
          "name": "",
          "type": "uint256"
        }
      ],
      "stateMutability": "view",
      "type": "function"
    },
    {
      "inputs": [],
      "name": "MIN_BET",
      "outputs": [
        {
          "internalType": "uint256",
          "name": "",
          "type": "uint256"
        }
      ],
      "stateMutability": "view",
      "type": "function"
    },
    {
      "inputs": [
        {
          "internalType": "uint256",
          "name": "",
          "type": "uint256"
        },
        {
          "internalType": "address",
          "name": "",
          "type": "address"
        }
      ],
      "name": "bets",
      "outputs": [
        {
          "internalType": "euint32",
          "name": "encryptedAmount",
          "type": "bytes32"
        },
        {
          "internalType": "ebool",
          "name": "encryptedPrediction",
          "type": "bytes32"
        },
        {
          "internalType": "bool",
          "name": "claimed",
          "type": "bool"
        },
        {
          "internalType": "address",
          "name": "bettor",
          "type": "address"
        }
      ],
      "stateMutability": "view",
      "type": "function"
    },
    {
      "inputs": [
        {
          "internalType": "uint256",
          "name": "_marketId",
          "type": "uint256"
        }
      ],
      "name": "claimWinnings",
      "outputs": [],
      "stateMutability": "nonpayable",
      "type": "function"
    },
    {
      "inputs": [
        {
          "internalType": "string",
          "name": "_question",
          "type": "string"
        },
        {
          "internalType": "uint256",
          "name": "_duration",
          "type": "uint256"
        }
      ],
      "name": "createMarket",
      "outputs": [
        {
          "internalType": "uint256",
          "name": "",
          "type": "uint256"
        }
      ],
      "stateMutability": "nonpayable",
      "type": "function"
    },
    {
      "inputs": [
        {
          "internalType": "uint256",
          "name": "_marketId",
          "type": "uint256"
        }
      ],
      "name": "emergencyWithdraw",
      "outputs": [],
      "stateMutability": "nonpayable",
      "type": "function"
    },
    {
      "inputs": [
        {
          "internalType": "uint256",
          "name": "_marketId",
          "type": "uint256"
        }
      ],
      "name": "getBetExists",
      "outputs": [
        {
          "internalType": "bool",
          "name": "exists",
          "type": "bool"
        },
        {
          "internalType": "bool",
          "name": "claimed",
          "type": "bool"
        }
      ],
      "stateMutability": "view",
      "type": "function"
    },
    {
      "inputs": [
        {
          "internalType": "uint256",
          "name": "_marketId",
          "type": "uint256"
        }
      ],
      "name": "getMarket",
      "outputs": [
        {
          "internalType": "string",
          "name": "question",
          "type": "string"
        },
        {
          "internalType": "uint256",
          "name": "endTime",
          "type": "uint256"
        },
        {
          "internalType": "uint256",
          "name": "totalYesBets",
          "type": "uint256"
        },
        {
          "internalType": "uint256",
          "name": "totalNoBets",
          "type": "uint256"
        },
        {
          "internalType": "bool",
          "name": "resolved",
          "type": "bool"
        },
        {
          "internalType": "bool",
          "name": "outcome",
          "type": "bool"
        },
        {
          "internalType": "address",
          "name": "creator",
          "type": "address"
        }
      ],
      "stateMutability": "view",
      "type": "function"
    },
    {
      "inputs": [
        {
          "internalType": "uint256",
          "name": "_marketId",
          "type": "uint256"
        }
      ],
      "name": "getMarketBettors",
      "outputs": [
        {
          "internalType": "address[]",
          "name": "",
          "type": "address[]"
        }
      ],
      "stateMutability": "view",
      "type": "function"
    },
    {
      "inputs": [],
      "name": "getTotalMarkets",
      "outputs": [
        {
          "internalType": "uint256",
          "name": "",
          "type": "uint256"
        }
      ],
      "stateMutability": "view",
      "type": "function"
    },
    {
      "inputs": [
        {
          "internalType": "uint256",
          "name": "",
          "type": "uint256"
        },
        {
          "internalType": "uint256",
          "name": "",
          "type": "uint256"
        }
      ],
      "name": "marketBettors",
      "outputs": [
        {
          "internalType": "address",
          "name": "",
          "type": "address"
        }
      ],
      "stateMutability": "view",
      "type": "function"
    },
    {
      "inputs": [],
      "name": "marketCounter",
      "outputs": [
        {
          "internalType": "uint256",
          "name": "",
          "type": "uint256"
        }
      ],
      "stateMutability": "view",
      "type": "function"
    },
    {
      "inputs": [
        {
          "internalType": "uint256",
          "name": "",
          "type": "uint256"
        }
      ],
      "name": "markets",
      "outputs": [
        {
          "internalType": "string",
          "name": "question",
          "type": "string"
        },
        {
          "internalType": "uint256",
          "name": "endTime",
          "type": "uint256"
        },
        {
          "internalType": "uint256",
          "name": "totalYesBets",
          "type": "uint256"
        },
        {
          "internalType": "uint256",
          "name": "totalNoBets",
          "type": "uint256"
        },
        {
          "internalType": "bool",
          "name": "resolved",
          "type": "bool"
        },
        {
          "internalType": "bool",
          "name": "outcome",
          "type": "bool"
        },
        {
          "internalType": "address",
          "name": "creator",
          "type": "address"
        }
      ],
      "stateMutability": "view",
      "type": "function"
    },
    {
      "inputs": [
        {
          "internalType": "uint256",
          "name": "_marketId",
          "type": "uint256"
        },
        {
          "internalType": "bool",
          "name": "_prediction",
          "type": "bool"
        }
      ],
      "name": "placeBet",
      "outputs": [],
      "stateMutability": "payable",
      "type": "function"
    },
    {
      "inputs": [
        {
          "internalType": "uint256",
          "name": "_marketId",
          "type": "uint256"
        },
        {
          "internalType": "bool",
          "name": "_outcome",
          "type": "bool"
        }
      ],
      "name": "resolveMarket",
      "outputs": [],
      "stateMutability": "nonpayable",
      "type": "function"
    }
  ],
  "bytecode": "0x6080604052348015600e575f80fd5b506119328061001c5f395ff3fe6080604052600436106100e4575f3560e01c806381ebf20911610087578063d960261d11610057578063d960261d1461024c578063e053bcec14610282578063eb44fdd3146102b9578063f644b3bb146102d8575f80fd5b806381ebf209146101d4578063883c84c1146101e85780639ed9c74d14610207578063b1283e771461021a575f80fd5b806357bde446116100c257806357bde446146101615780636540742f14610180578063677bd9ff1461019a5780637e95b523146101b9575f80fd5b80630b501ab8146100e8578063247608071461011d5780635312ea8e14610140575b5f80fd5b3480156100f3575f80fd5b506101076101023660046114b6565b61035b565b60405161011491906114cd565b60405180910390f35b348015610128575f80fd5b5061013260035481565b604051908152602001610114565b34801561014b575f80fd5b5061015f61015a3660046114b6565b610415565b005b34801561016c575f80fd5b5061015f61017b366004611519565b6105df565b34801561018b575f80fd5b5061013266038d7ea4c6800081565b3480156101a5575f80fd5b5061015f6101b43660046114b6565b6107c7565b3480156101c4575f80fd5b50610132678ac7230489e8000081565b3480156101df575f80fd5b50600354610132565b3480156101f3575f80fd5b5061013261020236600461155f565b610a7d565b61015f610215366004611519565b610c6b565b348015610225575f80fd5b506102396102343660046114b6565b611059565b604051610114979695949392919061163c565b348015610257575f80fd5b5061026b6102663660046114b6565b61112b565b604080519215158352901515602083015201610114565b34801561028d575f80fd5b506102a161029c36600461168a565b6111b1565b6040516001600160a01b039091168152602001610114565b3480156102c4575f80fd5b506102396102d33660046114b6565b6111e5565b3480156102e3575f80fd5b5061032c6102f23660046116aa565b600160208181525f9384526040808520909152918352912080549181015460029091015460ff81169061010090046001600160a01b031684565b604080519485526020850193909352901515918301919091526001600160a01b03166060820152608001610114565b60608160035481106103ac5760405162461bcd60e51b815260206004820152601560248201527413585c9ad95d08191bd95cc81b9bdd08195e1a5cdd605a1b60448201526064015b60405180910390fd5b5f838152600260209081526040918290208054835181840281018401909452808452909183018282801561040757602002820191905f5260205f20905b81546001600160a01b031681526001909101906020018083116103e9575b505050505091505b50919050565b80600354811061045f5760405162461bcd60e51b815260206004820152601560248201527413585c9ad95d08191bd95cc81b9bdd08195e1a5cdd605a1b60448201526064016103a3565b5f8281526020819052604090206004015482906201000090046001600160a01b031633146104cf5760405162461bcd60e51b815260206004820152601860248201527f4f6e6c792063726561746f722063616e207265736f6c7665000000000000000060448201526064016103a3565b5f838152602081905260409020600101546104ed9062278d006116ec565b42116105465760405162461bcd60e51b815260206004820152602260248201527f546f6f206561726c7920666f7220656d657267656e6379207769746864726177604482015261185b60f21b60648201526084016103a3565b5f8381526020819052604090206004015460ff166105a65760405162461bcd60e51b815260206004820152601d60248201527f4d61726b6574206d757374206265207265736f6c76656420666972737400000060448201526064016103a3565b4780156105d957604051339082156108fc029083905f818181858888f193505050501580156105d7573d5f803e3d5ffd5b505b50505050565b8160035481106106295760405162461bcd60e51b815260206004820152601560248201527413585c9ad95d08191bd95cc81b9bdd08195e1a5cdd605a1b60448201526064016103a3565b5f83815260208190526040902060010154839042101561068b5760405162461bcd60e51b815260206004820152601660248201527f4d61726b6574206973207374696c6c206163746976650000000000000000000060448201526064016103a3565b5f8481526020819052604090206004015484906201000090046001600160a01b031633146106fb5760405162461bcd60e51b815260206004820152601860248201527f4f6e6c792063726561746f722063616e207265736f6c7665000000000000000060448201526064016103a3565b5f8581526020819052604090206004015460ff161561075c5760405162461bcd60e51b815260206004820152601760248201527f4d61726b657420616c7265616479207265736f6c76656400000000000000000060448201526064016103a3565b5f858152602081905260409081902060040180548615156101000261ffff199091161760011790555185907f4927fe38919783250023d27e65a3e56b6b5c3e49364e51674a41ef08d62460d9906107b890871515815260200190565b60405180910390a25050505050565b8060035481106108115760405162461bcd60e51b815260206004820152601560248201527413585c9ad95d08191bd95cc81b9bdd08195e1a5cdd605a1b60448201526064016103a3565b5f8281526020819052604090206004015460ff166108715760405162461bcd60e51b815260206004820152601760248201527f4d61726b6574206e6f74207265736f6c7665642079657400000000000000000060448201526064016103a3565b5f8281526001602090815260408083203380855292529091206002015461010090046001600160a01b0316146108e95760405162461bcd60e51b815260206004820152600c60248201527f4e6f2062657420666f756e64000000000000000000000000000000000000000060448201526064016103a3565b5f82815260016020908152604080832033845290915290206002015460ff16156109555760405162461bcd60e51b815260206004820152600f60248201527f416c726561647920636c61696d6564000000000000000000000000000000000060448201526064016103a3565b5f828152600160208181526040808420338552825280842086855291849052832060028201805460ff19169093179092556004820154909290610100900460ff166109a45781600301546109aa565b81600201545b60048301549091505f90610100900460ff166109ca5782600201546109d0565b82600301545b90505f821180156109e057505f81115b15610a755766038d7ea4c680005f836109f984846116ff565b610a039190611716565b610a0d90836116ec565b604051909150339082156108fc029083905f818181858888f19350505050158015610a3a573d5f803e3d5ffd5b50604051818152339089907f5380cf6fe903b40c6d5a9e0dfbca2f3a423f0a21520b4d5947ed5169bdba946d9060200160405180910390a350505b505050505050565b5f808211610acd5760405162461bcd60e51b815260206004820152601960248201527f4475726174696f6e206d75737420626520706f7369746976650000000000000060448201526064016103a3565b5f835111610b1d5760405162461bcd60e51b815260206004820152601860248201527f5175657374696f6e2063616e6e6f7420626520656d707479000000000000000060448201526064016103a3565b600380545f9182610b2d83611735565b9190505590506040518060e001604052808581526020018442610b5091906116ec565b81525f6020808301829052604080840183905260608401839052608084018390523360a0909401939093528482528190522081518190610b9090826117c8565b5060208201516001820155604082015160028201556060820151600382015560808201516004909101805460a084015160c0909401516001600160a01b031662010000027fffffffffffffffffffff0000000000000000000000000000000000000000ffff9415156101000261ff00199415159490941661ffff19909216919091179290921792909216179055807f57d0d124b72f81ed1da0dc728fc33db342705974792928796f6577b8db5c3d5385610c4a86426116ec565b33604051610c5a93929190611884565b60405180910390a290505b92915050565b816003548110610cb55760405162461bcd60e51b815260206004820152601560248201527413585c9ad95d08191bd95cc81b9bdd08195e1a5cdd605a1b60448201526064016103a3565b5f8381526020819052604090206001015483904210610d165760405162461bcd60e51b815260206004820152601060248201527f4d61726b65742068617320656e6465640000000000000000000000000000000060448201526064016103a3565b5f8181526020819052604090206004015460ff1615610d775760405162461bcd60e51b815260206004820152601760248201527f4d61726b657420616c7265616479207265736f6c76656400000000000000000060448201526064016103a3565b66038d7ea4c680003410158015610d965750678ac7230489e800003411155b610de25760405162461bcd60e51b815260206004820152601260248201527f496e76616c69642062657420616d6f756e74000000000000000000000000000060448201526064016103a3565b5f84815260016020908152604080832033845290915290206002015461010090046001600160a01b031615610e595760405162461bcd60e51b815260206004820152601260248201527f416c726561647920706c6163656420626574000000000000000000000000000060448201526064016103a3565b5f610e6b66038d7ea4c6800034611716565b90505f610e7782611322565b90505f610e8386611334565b6040805160808101825284815260208082018481525f83850181815233606086018181528f8452600180875288852083865287528885209751885594518786015591516002968701805493516001600160a01b0316610100027fffffffffffffffffffffff0000000000000000000000000000000000000000ff921515929092167fffffffffffffffffffffff00000000000000000000000000000000000000000090941693909317179091558d8252848452948120805492830181558152919091200180547fffffffffffffffffffffffff000000000000000000000000000000000000000016909217909155909150610f8d678ac7230489e8000066038d7ea4c680006116ec565b610f979190611716565b341115610fc9575f8781526020819052604081206002018054349290610fbe9084906116ec565b90915550610fef9050565b5f8781526020819052604081206003018054349290610fe99084906116ec565b90915550505b610ff88261134f565b506110028161134f565b5061100d823361135e565b50611018813361135e565b50604051348152339088907f87b9df6fa7123c2e6044c3a3a37b4b0662c188d7a58ef86ee55067c46e4613ad9060200160405180910390a350505050505050565b5f602081905290815260409020805481906110739061174d565b80601f016020809104026020016040519081016040528092919081815260200182805461109f9061174d565b80156110ea5780601f106110c1576101008083540402835291602001916110ea565b820191905f5260205f20905b8154815290600101906020018083116110cd57829003601f168201915b505050506001830154600284015460038501546004909501549394919390925060ff808216916101008104909116906201000090046001600160a01b031687565b5f808260035481106111775760405162461bcd60e51b815260206004820152601560248201527413585c9ad95d08191bd95cc81b9bdd08195e1a5cdd605a1b60448201526064016103a3565b5050505f908152600160209081526040808320338085529252909120600201546001600160a01b036101008204169091149160ff90911690565b6002602052815f5260405f2081815481106111ca575f80fd5b5f918252602090912001546001600160a01b03169150829050565b60605f805f805f808760035481106112375760405162461bcd60e51b815260206004820152601560248201527413585c9ad95d08191bd95cc81b9bdd08195e1a5cdd605a1b60448201526064016103a3565b5f89815260208190526040902060018101546002820154600383015460048401548454859493929160ff808216926101008304909116916201000090046001600160a01b03169087906112899061174d565b80601f01602080910402602001604051908101604052809291908181526020018280546112b59061174d565b80156113005780601f106112d757610100808354040283529160200191611300565b820191905f5260205f20905b8154815290600101906020018083116112e357829003601f168201915b5050505050965098509850985098509850985098505050919395979092949650565b5f610c658263ffffffff166004611370565b5f610c6582611343575f611346565b60015b60ff165f611370565b5f61135a823061142d565b5090565b5f611369838361142d565b5090919050565b7f9e7b61f58c47dc699ac88507c4f5bb9f121c03808c5676a8078fe583e464970154604051639cd07acb60e01b81525f917f9e7b61f58c47dc699ac88507c4f5bb9f121c03808c5676a8078fe583e4649700916001600160a01b0390911690639cd07acb906113e590879087906004016118b5565b6020604051808303815f875af1158015611401573d5f803e3d5ffd5b505050506040513d601f19601f8201168201806040525081019061142591906118e5565b949350505050565b5f7f9e7b61f58c47dc699ac88507c4f5bb9f121c03808c5676a8078fe583e46497008054604051635ca4b5b160e11b8152600481018690526001600160a01b03858116602483015292935091169063b9496b62906044015f604051808303815f87803b15801561149b575f80fd5b505af11580156114ad573d5f803e3d5ffd5b50505050505050565b5f602082840312156114c6575f80fd5b5035919050565b602080825282518282018190525f9190848201906040850190845b8181101561150d5783516001600160a01b0316835292840192918401916001016114e8565b50909695505050505050565b5f806040838503121561152a575f80fd5b8235915060208301358015158114611540575f80fd5b809150509250929050565b634e487b7160e01b5f52604160045260245ffd5b5f8060408385031215611570575f80fd5b823567ffffffffffffffff80821115611587575f80fd5b818501915085601f83011261159a575f80fd5b8135818111156115ac576115ac61154b565b604051601f8201601f19908116603f011681019083821181831017156115d4576115d461154b565b816040528281528860208487010111156115ec575f80fd5b826020860160208301375f602093820184015298969091013596505050505050565b5f81518084528060208401602086015e5f602082860101526020601f19601f83011685010191505092915050565b60e081525f61164e60e083018a61160e565b602083019890985250604081019590955260608501939093529015156080840152151560a08301526001600160a01b031660c090910152919050565b5f806040838503121561169b575f80fd5b50508035926020909101359150565b5f80604083850312156116bb575f80fd5b8235915060208301356001600160a01b0381168114611540575f80fd5b634e487b7160e01b5f52601160045260245ffd5b80820180821115610c6557610c656116d8565b8082028115828204841417610c6557610c656116d8565b5f8261173057634e487b7160e01b5f52601260045260245ffd5b500490565b5f60018201611746576117466116d8565b5060010190565b600181811c9082168061176157607f821691505b60208210810361040f57634e487b7160e01b5f52602260045260245ffd5b601f8211156117c357805f5260205f20601f840160051c810160208510156117a45750805b601f840160051c820191505b818110156105d7575f81556001016117b0565b505050565b815167ffffffffffffffff8111156117e2576117e261154b565b6117f6816117f0845461174d565b8461177f565b602080601f831160018114611829575f84156118125750858301515b5f19600386901b1c1916600185901b178555610a75565b5f85815260208120601f198616915b8281101561185757888601518255948401946001909101908401611838565b508582101561187457878501515f19600388901b60f8161c191681555b5050505050600190811b01905550565b606081525f611896606083018661160e565b90508360208301526001600160a01b0383166040830152949350505050565b82815260408101605483106118d857634e487b7160e01b5f52602160045260245ffd5b8260208301529392505050565b5f602082840312156118f5575f80fd5b505191905056fea264697066735822122046d32d9f77a7c82c036055db386e98f1eb6d902c7b5060918045fef2f94fd3ea64736f6c63430008190033",
  "linkReferences": {},
  "deployedLinkReferences": {}
}